:060000000A128A110C280F
:10000800FE00030EF1000A08F2000A128A111328F2
:100018000A128A110F2883010A128A117928831279
:1000280003138C1E182819281C281A0885008C12FE
:100038000B1C1F28202836280618232824282628A1
:100048000130F302861829282A282E280130F000CA
:100058007008F30706080B100C1E332834283628BE
:100068007308990072088A00710E8300FE0E7E0ED6
:1000780009008316031788018901033083160313C7
:1000880086008501880183120313850186014130AA
:10009800F300831603138113151495140F088F3971
:1000A80040388F000F14161496140B108B150B176D
:1000B8008B17080019308316031399009A01181535
:1000C8008316031787158316031318128312031355
:1000D8009817831603131813981683120313181608
:1000E8000C12831603138C1608000A128A113D207D
:1000F8000A128A110A128A115E200A128A118328AA
:060108000A128A110C2806
:08400000FF3FFF3FFF3FFF3FC0
:04400E00D420FF3F7C
:00000001FF
